202108020010000200000000000000008034000000000000000080348000000000027273229979COLIPAN MARIA CLOTILDE        000000000224092000000000000000000000000000000000000000000000000000000000000000000000000000000000000000000000000000000000PES00010000001 00000000000000000000000
202108020010000200000000000000008035000000000000000080358000000000027163933891MARTINEZ MARIA ESTELA         000000000900119000000000000000000000000000000000000000000000000000000000000000000000000000000000000000000000000000000000PES00010000001 00000000000000000000000
202108020010000200000000000000008036000000000000000080368000000000027310860870MORALES MONICA ESTER          000000000749958000000000000000000000000000000000000000000000000000000000000000000000000000000000000000000000000000000000PES00010000001 00000000000000000000000
202108020010000200000000000000008037000000000000000080378000000000027310860870MORALES MONICA ESTER          000000000060198000000000000000000000000000000000000000000000000000000000000000000000000000000000000000000000000000000000PES00010000001 00000000000000000000000
202108020010000200000000000000008038000000000000000080388000000000020282347440DIAZ JORGE OMAR               000000000891528000000000000000000000000000000000000000000000000000000000000000000000000000000000000000000000000000000000PES00010000001 00000000000000000000000
202108020010000200000000000000008039000000000000000080398000000000030999278376CONSEJO PROVINCIAL EDUC. NQN  000000000185735000000000000000000000000000000000000000000000000000000000000000000000000000000000000000000000000000000000PES00010000001 00000000000000000000000
202108020010000200000000000000008040000000000000000080408000000000030999278376CONSEJO PROVINCIAL EDUC. NQN  000000000185735000000000000000000000000000000000000000000000000000000000000000000000000000000000000000000000000000000000PES00010000001 00000000000000000000000
202108020060000200000000000000010344000000000000000103449900000000000000000000CONSUMIDOR FINAL              000000000480007000000000000000000000000000000000000000000000000000000000000000000000000000000000000000000000000000000000PES00010000001 00000000000000000000000