202110020010000200000000000000008034000000000000000080348000000000000035833716COLIPAN MARIA CLOTILDE        000000000224092000000000000000000000000000000000000000000000000000000000000000000000000000000000000000000000000000000000PES00010000001 00000000000000000000000
202110020010000200000000000000008034000000000000000080348000000000000035833716JAVIER DESMARET               000000000030055000000000000000000000000000000000000000000000000000000000000000000000000000000000000000000000000000000000PES00010000001 00000000000000000000000
202110020010000200000000000000008034000000000000000080348000000000000035833716MARCELO GIMENEZ               000000000030055000000000000000000000000000000000000000000000000000000000000000000000000000000000000000000000000000000000PES00010000001 00000000000000000000000
